{"abi":[{"type":"constructor","inputs":[{"name":"_owner","type":"address","internalType":"address"},{"name":"_treasury","type":"address","internalType":"address"}],"stateMutability":"nonpayable"},{"type":"receive","stateMutability":"payable"},{"type":"function","name":"DOMAIN_SEPARATOR","inputs":[],"outputs":[{"name":"","type":"bytes32","internalType":"bytes32"}],"stateMutability":"view"},{"type":"function","name":"MAX_CALLS","inputs":[],"outputs":[{"name":"","type":"uint256","internalType":"uint256"}],"stateMutability":"view"},{"type":"function","name":"MAX_DEADLINE_BUFFER","inputs":[],"outputs":[{"name":"","type":"uint256","internalType":"uint256"}],"stateMutability":"view"},{"type":"function","name":"MAX_FEE_BPS","inputs":[],"outputs":[{"name":"","type":"uint256","internalType":"uint256"}],"stateMutability":"view"},{"type":"function","name":"MIN_DEADLINE_BUFFER","inputs":[],"outputs":[{"name":"","type":"uint256","internalType":"uint256"}],"stateMutability":"view"},{"type":"function","name":"SINGLETON","inputs":[],"outputs":[{"name":"","type":"address","internalType":"address"}],"stateMutability":"view"},{"type":"function","name":"VERSION","inputs":[],"outputs":[{"name":"","type":"string","internalType":"string"}],"stateMutability":"view"},{"type":"function","name":"acceptOwnership","inputs":[],"outputs":[],"stateMutability":"nonpayable"},{"type":"function","name":"allowedSelectors","inputs":[{"name":"","type":"address","internalType":"address"},{"name":"","type":"bytes4","internalType":"bytes4"}],"outputs":[{"name":"","type":"bool","internalType":"bool"}],"stateMutability":"view"},{"type":"function","name":"allowedTargets","inputs":[{"name":"","type":"address","internalType":"address"}],"outputs":[{"name":"","type":"bool","internalType":"bool"}],"stateMutability":"view"},{"type":"function","name":"allowedTokens","inputs":[{"name":"","type":"address","internalType":"address"}],"outputs":[{"name":"","type":"bool","internalType":"bool"}],"stateMutability":"view"},{"type":"function","name":"batchSetAllowedSelectors","inputs":[{"name":"","type":"address","internalType":"address"},{"name":"","type":"bytes4[]","internalType":"bytes4[]"},{"name":"","type":"bool","internalType":"bool"}],"outputs":[],"stateMutability":"nonpayable"},{"type":"function","name":"blockUser","inputs":[{"name":"","type":"address","internalType":"address"}],"outputs":[],"stateMutability":"nonpayable"},{"type":"function","name":"eip712Domain","inputs":[],"outputs":[{"name":"fields","type":"bytes1","internalType":"bytes1"},{"name":"name","type":"string","internalType":"string"},{"name":"version","type":"string","internalType":"string"},{"name":"chainId","type":"uint256","internalType":"uint256"},{"name":"verifyingContract","type":"address","internalType":"address"},{"name":"salt","type":"bytes32","internalType":"bytes32"},{"name":"extensions","type":"uint256[]","internalType":"uint256[]"}],"stateMutability":"view"},{"type":"function","name":"executeBatch","inputs":[{"name":"calls","type":"tuple[]","internalType":"struct ITirraDelegate.Call[]","components":[{"name":"target","type":"address","internalType":"address"},{"name":"value","type":"uint256","internalType":"uint256"},{"name":"data","type":"bytes","internalType":"bytes"}]},{"name":"intent","type":"tuple","internalType":"struct ITirraDelegate.Intent","components":[{"name":"user","type":"address","internalType":"address"},{"name":"chainId","type":"uint256","internalType":"uint256"},{"name":"nonce","type":"uint256","internalType":"uint256"},{"name":"deadline","type":"uint256","internalType":"uint256"},{"name":"callsHash","type":"bytes32","internalType":"bytes32"},{"name":"fee","type":"tuple","internalType":"struct ITirraDelegate.Fee","components":[{"name":"token","type":"address","internalType":"address"},{"name":"amount","type":"uint256","internalType":"uint256"},{"name":"recipient","type":"address","internalType":"address"}]},{"name":"constraints","type":"tuple","internalType":"struct ITirraDelegate.Constraints","components":[{"name":"maxInput","type":"uint256","internalType":"uint256"},{"name":"minOutput","type":"uint256","internalType":"uint256"},{"name":"outputToken","type":"address","internalType":"address"},{"name":"recipient","type":"address","internalType":"address"},{"name":"destChainId","type":"uint256","internalType":"uint256"}]}]},{"name":"signature","type":"bytes","internalType":"bytes"}],"outputs":[{"name":"results","type":"bool[]","internalType":"bool[]"}],"stateMutability":"nonpayable"},{"type":"function","name":"getIntentHash","inputs":[{"name":"intent","type":"tuple","internalType":"struct ITirraDelegate.Intent","components":[{"name":"user","type":"address","internalType":"address"},{"name":"chainId","type":"uint256","internalType":"uint256"},{"name":"nonce","type":"uint256","internalType":"uint256"},{"name":"deadline","type":"uint256","internalType":"uint256"},{"name":"callsHash","type":"bytes32","internalType":"bytes32"},{"name":"fee","type":"tuple","internalType":"struct ITirraDelegate.Fee","components":[{"name":"token","type":"address","internalType":"address"},{"name":"amount","type":"uint256","internalType":"uint256"},{"name":"recipient","type":"address","internalType":"address"}]},{"name":"constraints","type":"tuple","internalType":"struct ITirraDelegate.Constraints","components":[{"name":"maxInput","type":"uint256","internalType":"uint256"},{"name":"minOutput","type":"uint256","internalType":"uint256"},{"name":"outputToken","type":"address","internalType":"address"},{"name":"recipient","type":"address","internalType":"address"},{"name":"destChainId","type":"uint256","internalType":"uint256"}]}]}],"outputs":[{"name":"","type":"bytes32","internalType":"bytes32"}],"stateMutability":"view"},{"type":"function","name":"nonces","inputs":[{"name":"","type":"address","internalType":"address"},{"name":"","type":"uint192","internalType":"uint192"}],"outputs":[{"name":"","type":"uint256","internalType":"uint256"}],"stateMutability":"view"},{"type":"function","name":"owner","inputs":[],"outputs":[{"name":"","type":"address","internalType":"address"}],"stateMutability":"view"},{"type":"function","name":"pause","inputs":[],"outputs":[],"stateMutability":"nonpayable"},{"type":"function","name":"paused","inputs":[],"outputs":[{"name":"","type":"bool","internalType":"bool"}],"stateMutability":"view"},{"type":"function","name":"pendingOwner","inputs":[],"outputs":[{"name":"","type":"address","internalType":"address"}],"stateMutability":"view"},{"type":"function","name":"recoverTokens","inputs":[{"name":"","type":"address","internalType":"address"},{"name":"","type":"address","internalType":"address"},{"name":"","type":"uint256","internalType":"uint256"}],"outputs":[],"stateMutability":"nonpayable"},{"type":"function","name":"renounceOwnership","inputs":[],"outputs":[],"stateMutability":"nonpayable"},{"type":"function","name":"setAllowedSelector","inputs":[{"name":"","type":"address","internalType":"address"},{"name":"","type":"bytes4","internalType":"bytes4"},{"name":"","type":"bool","internalType":"bool"}],"outputs":[],"stateMutability":"nonpayable"},{"type":"function","name":"setAllowedTarget","inputs":[{"name":"","type":"address","internalType":"address"},{"name":"","type":"bool","internalType":"bool"}],"outputs":[],"stateMutability":"nonpayable"},{"type":"function","name":"setAllowedToken","inputs":[{"name":"","type":"address","internalType":"address"},{"name":"","type":"bool","internalType":"bool"}],"outputs":[],"stateMutability":"nonpayable"},{"type":"function","name":"setTreasury","inputs":[{"name":"","type":"address","internalType":"address"}],"outputs":[],"stateMutability":"nonpayable"},{"type":"function","name":"transferOwnership","inputs":[{"name":"newOwner","type":"address","internalType":"address"}],"outputs":[],"stateMutability":"nonpayable"},{"type":"function","name":"treasury","inputs":[],"outputs":[{"name":"","type":"address","internalType":"address"}],"stateMutability":"view"},{"type":"function","name":"unblockUser","inputs":[{"name":"","type":"address","internalType":"address"}],"outputs":[],"stateMutability":"nonpayable"},{"type":"function","name":"unpause","inputs":[],"outputs":[],"stateMutability":"nonpayable"},{"type":"function","name":"userBlocked","inputs":[{"name":"","type":"address","internalType":"address"}],"outputs":[{"name":"","type":"bool","internalType":"bool"}],"stateMutability":"view"},{"type":"function","name":"verifySignature","inputs":[{"name":"intent","type":"tuple","internalType":"struct ITirraDelegate.Intent","components":[{"name":"user","type":"address","internalType":"address"},{"name":"chainId","type":"uint256","internalType":"uint256"},{"name":"nonce","type":"uint256","internalType":"uint256"},{"name":"deadline","type":"uint256","internalType":"uint256"},{"name":"callsHash","type":"bytes32","internalType":"bytes32"},{"name":"fee","type":"tuple","internalType":"struct ITirraDelegate.Fee","components":[{"name":"token","type":"address","internalType":"address"},{"name":"amount","type":"uint256","internalType":"uint256"},{"name":"recipient","type":"address","internalType":"address"}]},{"name":"constraints","type":"tuple","internalType":"struct ITirraDelegate.Constraints","components":[{"name":"maxInput","type":"uint256","internalType":"uint256"},{"name":"minOutput","type":"uint256","internalType":"uint256"},{"name":"outputToken","type":"address","internalType":"address"},{"name":"recipient","type":"address","internalType":"address"},{"name":"destChainId","type":"uint256","internalType":"uint256"}]}]},{"name":"signature","type":"bytes","internalType":"bytes"}],"outputs":[{"name":"","type":"bool","internalType":"bool"}],"stateMutability":"view"},{"type":"event","name":"AllowlistUpdated","inputs":[{"name":"target","type":"address","indexed":true,"internalType":"address"},{"name":"selector","type":"bytes4","indexed":false,"internalType":"bytes4"},{"name":"allowed","type":"bool","indexed":false,"internalType":"bool"}],"anonymous":false},{"type":"event","name":"EIP712DomainChanged","inputs":[],"anonymous":false},{"type":"event","name":"EmergencyPause","inputs":[{"name":"paused","type":"bool","indexed":false,"internalType":"bool"}],"anonymous":false},{"type":"event","name":"FeeCollected","inputs":[{"name":"user","type":"address","indexed":true,"internalType":"address"},{"name":"token","type":"address","indexed":true,"internalType":"address"},{"name":"amount","type":"uint256","indexed":false,"internalType":"uint256"},{"name":"recipient","type":"address","indexed":false,"internalType":"address"}],"anonymous":false},{"type":"event","name":"IntentExecuted","inputs":[{"name":"user","type":"address","indexed":true,"internalType":"address"},{"name":"nonce","type":"uint256","indexed":true,"internalType":"uint256"},{"name":"intentHash","type":"bytes32","indexed":true,"internalType":"bytes32"},{"name":"success","type":"bool","indexed":false,"internalType":"bool"}],"anonymous":false},{"type":"event","name":"OwnershipTransferStarted","inputs":[{"name":"previousOwner","type":"address","indexed":true,"internalType":"address"},{"name":"newOwner","type":"address","indexed":true,"internalType":"address"}],"anonymous":false},{"type":"event","name":"OwnershipTransferred","inputs":[{"name":"previousOwner","type":"address","indexed":true,"internalType":"address"},{"name":"newOwner","type":"address","indexed":true,"internalType":"address"}],"anonymous":false},{"type":"event","name":"TokenAllowlistUpdated","inputs":[{"name":"token","type":"address","indexed":true,"internalType":"address"},{"name":"allowed","type":"bool","indexed":false,"internalType":"bool"}],"anonymous":false},{"type":"event","name":"UserBlocked","inputs":[{"name":"user","type":"address","indexed":true,"internalType":"address"},{"name":"blocked","type":"bool","indexed":false,"internalType":"bool"}],"anonymous":false},{"type":"error","name":"CallFailed","inputs":[{"name":"index","type":"uint256","internalType":"uint256"},{"name":"reason","type":"bytes","internalType":"bytes"}]},{"type":"error","name":"CallsHashMismatch","inputs":[]},{"type":"error","name":"DeadlineTooFar","inputs":[]},{"type":"error","name":"ECDSAInvalidSignature","inputs":[]},{"type":"error","name":"ECDSAInvalidSignatureLength","inputs":[{"name":"length","type":"uint256","internalType":"uint256"}]},{"type":"error","name":"ECDSAInvalidSignatureS","inputs":[{"name":"s","type":"bytes32","internalType":"bytes32"}]},{"type":"error","name":"FeeTooHigh","inputs":[]},{"type":"error","name":"FeeTransferFailed","inputs":[]},{"type":"error","name":"InsufficientOutput","inputs":[]},{"type":"error","name":"IntentExpired","inputs":[]},{"type":"error","name":"InvalidNonce","inputs":[]},{"type":"error","name":"InvalidShortString","inputs":[]},{"type":"error","name":"InvalidSignature","inputs":[]},{"type":"error","name":"NoCalls","inputs":[]},{"type":"error","name":"NotAContract","inputs":[]},{"type":"error","name":"OwnableInvalidOwner","inputs":[{"name":"owner","type":"address","internalType":"address"}]},{"type":"error","name":"OwnableUnauthorizedAccount","inputs":[{"name":"account","type":"address","internalType":"address"}]},{"type":"error","name":"ReentrancyGuardReentrantCall","inputs":[]},{"type":"error","name":"SelectorNotAllowed","inputs":[]},{"type":"error","name":"StringTooLong","inputs":[{"name":"str","type":"string","internalType":"string"}]},{"type":"error","name":"SystemPaused","inputs":[]},{"type":"error","name":"TargetNotAllowed","inputs":[]},{"type":"error","name":"TokenNotAllowed","inputs":[]},{"type":"error","name":"TooManyCalls","inputs":[]},{"type":"error","name":"UnauthorizedCaller","inputs":[]},{"type":"error","name":"UserIsBlocked","inputs":[]},{"type":"error","name":"WrongChainId","inputs":[]},{"type":"error","name":"ZeroAddress","inputs":[]}],"bytecode":{"object":"0x61018060405234801562000011575f80fd5b5060405162001c9138038062001c918339810160408190526200003491620002dd565b604080518082018252600d81526c546972726144656c656761746560981b602080830191909152825180840190935260018352603160f81b9083015283916200007e825f620001d8565b610120526200008f816001620001d8565b61014052815160208084019190912060e052815190820120610100524660a0526200011c60e05161010051604080517f8b73c3c69bb8fe3d512ecc4cf759cc79239f7b179b0ffacaa9a75d522b39400f60208201529081019290925260608201524660808201523060a08201525f9060c00160405160208183030381529060405280519060200120905090565b60805250503060c0526001600160a01b0381166200015457604051631e4fbdf760e01b81525f60048201526024015b60405180910390fd5b6200015f8162000210565b5060017f9b779b17422d0df92223018b32b4d1fa46e071723d6817e2486d003becc55f00556001600160a01b038116620001ac5760405163d92e233d60e01b815260040160405180910390fd5b600a80546001600160a01b0319166001600160a01b0392909216919091179055503061016052620004ef565b5f602083511015620001f757620001ef836200022e565b90506200020a565b81620002048482620003b1565b5060ff90505b92915050565b600380546001600160a01b03191690556200022b8162000270565b50565b5f80829050601f815111156200025b578260405163305a27a960e01b81526004016200014b91906200047d565b80516200026882620004cb565b179392505050565b600280546001600160a01b038381166001600160a01b0319831681179093556040519116919082907f8be0079c531659141344cd1fd0a4f28419497f9722a3daafe3b4186f6b6457e0905f90a35050565b80516001600160a01b0381168114620002d8575f80fd5b919050565b5f8060408385031215620002ef575f80fd5b620002fa83620002c1565b91506200030a60208401620002c1565b90509250929050565b634e487b7160e01b5f52604160045260245ffd5b600181811c908216806200033c57607f821691505b6020821081036200035b57634e487b7160e01b5f52602260045260245ffd5b50919050565b601f821115620003ac57805f5260205f20601f840160051c81016020851015620003885750805b601f840160051c820191505b81811015620003a9575f815560010162000394565b50505b505050565b81516001600160401b03811115620003cd57620003cd62000313565b620003e581620003de845462000327565b8462000361565b602080601f8311600181146200041b575f8415620004035750858301515b5f19600386901b1c1916600185901b17855562000475565b5f85815260208120601f198616915b828110156200044b578886015182559484019460019091019084016200042a565b50858210156200046957878501515f19600388901b60f8161c191681555b505060018460011b0185555b505050505050565b5f602080835283518060208501525f5b81811015620004ab578581018301518582016040015282016200048d565b505f604082860101526040601f19601f8301168501019250505092915050565b805160208083015191908110156200035b575f1960209190910360031b1b16919050565b60805160a05160c05160e051610100516101205161014051610160516117466200054b5f395f61028b01525f610cc201525f610c9601525f610ae401525f610abc01525f610a1701525f610a4101525f610a6b01526117465ff3fe6080604052600436106101e9575f3560e01c806384b0196e11610108578063ca1dd22e1161009d578063e744092e1161006d578063e744092e14610545578063f0f442601461021b578063f2fde38b14610573578063f8fcf4df14610592578063ffa1ad74146105ac575f80fd5b8063ca1dd22e146103dc578063d55be8c6146104f4578063e30c397814610509578063e626642714610526575f80fd5b8063b8fe8d5f116100d8578063b8fe8d5f14610443578063b9add4b714610471578063bba013aa14610485578063bef37613146104be575f80fd5b806384b0196e146103b55780638aaa2284146103dc5780638da5cb5b146103fa57806398ce7cd614610417575f80fd5b80635f3e849f1161017e578063715018a61161014e578063715018a61461036e57806373b7cb6e1461038257806379ba5097146103a15780638456cb591461024f575f80fd5b80635f3e849f146102ee57806361d027b31461030d578063665571291461032c5780636814ed0514610340575f80fd5b80633f4ba83a116101b95780633f4ba83a1461024f578063595e3a531461025a5780635a28a1db1461027a5780635c975abb146102c5575f80fd5b80633644e515146101f457806339d319e51461021b5780633a3b00b71461023a5780633da013251461021b575f80fd5b366101f057005b5f80fd5b3480156101ff575f80fd5b506102086105e5565b6040519081526020015b60405180910390f35b348015610226575f80fd5b5061023861023536600461119d565b50565b005b348015610245575f80fd5b50610208610e1081565b348015610238575f80fd5b348015610265575f80fd5b50610238610274366004611214565b50505050565b348015610285575f80fd5b506102ad7f000000000000000000000000000000000000000000000000000000000000000081565b6040516001600160a01b039091168152602001610212565b3480156102d0575f80fd5b506008546102de9060ff1681565b6040519015158152602001610212565b3480156102f9575f80fd5b50610238610308366004611275565b505050565b348015610318575f80fd5b50600a546102ad906001600160a01b031681565b348015610337575f80fd5b50610208603c81565b34801561034b575f80fd5b506102de61035a36600461119d565b60096020525f908152604090205460ff1681565b348015610379575f80fd5b506102386105f5565b34801561038d575f80fd5b506102de61039c366004611303565b610606565b3480156103ac575f80fd5b50610238610683565b3480156103c0575f80fd5b506103c96106c9565b6040516102129796959493929190611398565b3480156103e7575f80fd5b506102386103f636600461142f565b5050565b348015610405575f80fd5b506002546001600160a01b03166102ad565b348015610422575f80fd5b50610436610431366004611460565b61070b565b60405161021291906114e1565b34801561044e575f80fd5b506102de61045d36600461119d565b60056020525f908152604090205460ff1681565b34801561047c575f80fd5b50610208600a81565b348015610490575f80fd5b506102de61049f36600461153d565b600660209081525f928352604080842090915290825290205460ff1681565b3480156104c9575f80fd5b506102086104d8366004611565565b600760209081525f928352604080842090915290825290205481565b3480156104ff575f80fd5b506102086101f481565b348015610514575f80fd5b506003546001600160a01b03166102ad565b348015610531575f80fd5b506102086105403660046115a5565b610987565b348015610550575f80fd5b506102de61055f36600461119d565b60046020525f908152604090205460ff1681565b34801561057e575f80fd5b5061023861058d36600461119d565b61099a565b34801561059d575f80fd5b506102386103083660046115c0565b3480156105b7575f80fd5b506105d8604051806040016040528060018152602001603160f81b81525081565b6040516102129190611600565b5f6105ee610a0b565b905090565b565b6105fd610b34565b6105f35f610b61565b5f8061061961061486610b7a565b610c3b565b90505f61065d85858080601f0160208091040260200160405190810160405280939291908181526020018383808284375f920191909152508693925050610c679050565b905061066c602087018761119d565b6001600160a01b0391821691161495945050505050565b60035433906001600160a01b031681146106c05760405163118cdaa760e01b81526001600160a01b03821660048201526024015b60405180910390fd5b61023581610b61565b5f6060805f805f60606106da610c8f565b6106e2610cbb565b604080515f80825260208201909252600f60f81b9b939a50919850469750309650945092509050565b6060610715610ce8565b604084810135901c60075f61072d602088018861119d565b6001600160a01b0316815260208082019290925260409081015f9081206001600160c01b03909416815292909152902080546001019055848067ffffffffffffffff81111561077e5761077e611612565b6040519080825280602002602001820160405280156107a7578160200160208202803683370190505b5091505f5b818110156108fb575f808989848181106107c8576107c8611626565b90506020028101906107da919061163a565b6107e890602081019061119d565b6001600160a01b03168a8a8581811061080357610803611626565b9050602002810190610815919061163a565b602001358b8b8681811061082b5761082b611626565b905060200281019061083d919061163a565b61084b906040810190611658565b60405161085992919061169b565b5f6040518083038185875af1925050503d805f8114610893576040519150601f19603f3d011682016040523d82523d5f602084013e610898565b606091505b5091509150818584815181106108b0576108b0611626565b91151560209283029190910190910152816108f1578051156108d457805181602001fd5b8281604051635c0dee5d60e01b81526004016106b79291906116aa565b50506001016107ac565b505f604086013561090f602088018861119d565b6001600160a01b03167fecb8b0605247e2307f31a43f9e07a62d8986df3f49253f983635ea09ddd6ce33600160405161094c911515815260200190565b60405180910390a45061097e60017f9b779b17422d0df92223018b32b4d1fa46e071723d6817e2486d003becc55f0055565b95945050505050565b5f61099461061483610b7a565b92915050565b6109a2610b34565b600380546001600160a01b0383166001600160a01b031990911681179091556109d36002546001600160a01b031690565b6001600160a01b03167f38d16b8cac22d99fc7c124b9cd0de2d3fa1faef420bfe791d8c362d765e2270060405160405180910390a350565b5f306001600160a01b037f000000000000000000000000000000000000000000000000000000000000000016148015610a6357507f000000000000000000000000000000000000000000000000000000000000000046145b15610a8d57507f000000000000000000000000000000000000000000000000000000000000000090565b6105ee604080517f8b73c3c69bb8fe3d512ecc4cf759cc79239f7b179b0ffacaa9a75d522b39400f60208201527f0000000000000000000000000000000000000000000000000000000000000000918101919091527f000000000000000000000000000000000000000000000000000000000000000060608201524660808201523060a08201525f9060c00160405160208183030381529060405280519060200120905090565b6002546001600160a01b031633146105f35760405163118cdaa760e01b81523360048201526024016106b7565b600380546001600160a01b031916905561023581610d16565b5f7ff5ffa7c2d07e7a04eb7d52977c659557f07318c1c3552d9fb7b6619b754feb7f610ba9602084018461119d565b8360200135846040013585606001358660800135610bc98860a001610d67565b610bd68961010001610ddc565b6040805160208101999099526001600160a01b03909716968801969096526060870194909452608086019290925260a085015260c084015260e0830152610100820152610120015b604051602081830303815290604052805190602001209050919050565b5f610994610c47610a0b565b8360405161190160f01b8152600281019290925260228201526042902090565b5f805f80610c758686610e6a565b925092509250610c858282610eb3565b5090949350505050565b60606105ee7f00000000000000000000000000000000000000000000000000000000000000005f610f6b565b60606105ee7f00000000000000000000000000000000000000000000000000000000000000006001610f6b565b610cf0611014565b60027f9b779b17422d0df92223018b32b4d1fa46e071723d6817e2486d003becc55f0055565b600280546001600160a01b038381166001600160a01b0319831681179093556040519116919082907f8be0079c531659141344cd1fd0a4f28419497f9722a3daafe3b4186f6b6457e0905f90a35050565b5f7f070a02fdc5d185ef80dca640a2396aa1b71eb112723df8f635fb48aeda98dcec610d96602084018461119d565b6020840135610dab606086016040870161119d565b6040805160208101959095526001600160a01b0393841690850152606084019190915216608082015260a001610c1e565b5f7f54900b0134fc24cf4d872ec20bee9d8625311821b695490aee7d6da2acf3d94f82356020840135610e15606086016040870161119d565b610e25608087016060880161119d565b60408051602081019690965285019390935260608401919091526001600160a01b03908116608084810191909152911660a083015283013560c082015260e001610c1e565b5f805f8351604103610ea1576020840151604085015160608601515f1a610e9388828585611056565b955095509550505050610eac565b505081515f91506002905b9250925092565b5f826003811115610ec657610ec66116ca565b03610ecf575050565b6001826003811115610ee357610ee36116ca565b03610f015760405163f645eedf60e01b815260040160405180910390fd5b6002826003811115610f1557610f156116ca565b03610f365760405163fce698f760e01b8152600481018290526024016106b7565b6003826003811115610f4a57610f4a6116ca565b036103f6576040516335e2f38360e21b8152600481018290526024016106b7565b606060ff8314610f8557610f7e8361111e565b9050610994565b818054610f91906116de565b80601f0160208091040260200160405190810160405280929190818152602001828054610fbd906116de565b80156110085780601f10610fdf57610100808354040283529160200191611008565b820191905f5260205f20905b815481529060010190602001808311610feb57829003601f168201915b50505050509050610994565b7f9b779b17422d0df92223018b32b4d1fa46e071723d6817e2486d003becc55f00546002036105f357604051633ee5aeb560e01b815260040160405180910390fd5b5f80807f7fffffffffffffffffffffffffffffff5d576e7357a4501ddfe92f46681b20a084111561108f57505f91506003905082611114565b604080515f808252602082018084528a905260ff891692820192909252606081018790526080810186905260019060a0016020604051602081039080840390855afa1580156110e0573d5f803e3d5ffd5b5050604051601f1901519150506001600160a01b03811661110b57505f925060019150829050611114565b92505f91508190505b9450945094915050565b60605f61112a8361115b565b6040805160208082528183019092529192505f91906020820181803683375050509182525060208101929092525090565b5f60ff8216601f81111561099457604051632cd44ac360e21b815260040160405180910390fd5b80356001600160a01b0381168114611198575f80fd5b919050565b5f602082840312156111ad575f80fd5b6111b682611182565b9392505050565b5f8083601f8401126111cd575f80fd5b50813567ffffffffffffffff8111156111e4575f80fd5b6020830191508360208260051b85010111156111fe575f80fd5b9250929050565b80358015158114611198575f80fd5b5f805f8060608587031215611227575f80fd5b61123085611182565b9350602085013567ffffffffffffffff81111561124b575f80fd5b611257878288016111bd565b909450925061126a905060408601611205565b905092959194509250565b5f805f60608486031215611287575f80fd5b61129084611182565b925061129e60208501611182565b9150604084013590509250925092565b5f6101a082840312156112bf575f80fd5b50919050565b5f8083601f8401126112d5575f80fd5b50813567ffffffffffffffff8111156112ec575f80fd5b6020830191508360208285010111156111fe575f80fd5b5f805f6101c08486031215611316575f80fd5b61132085856112ae565b92506101a084013567ffffffffffffffff81111561133c575f80fd5b611348868287016112c5565b9497909650939450505050565b5f81518084525f5b818110156113795760208185018101518683018201520161135d565b505f602082860101526020601f19601f83011685010191505092915050565b60ff60f81b881681525f602060e060208401526113b860e084018a611355565b83810360408501526113ca818a611355565b606085018990526001600160a01b038816608086015260a0850187905284810360c0860152855180825260208088019350909101905f5b8181101561141d57835183529284019291840191600101611401565b50909c9b505050505050505050505050565b5f8060408385031215611440575f80fd5b61144983611182565b915061145760208401611205565b90509250929050565b5f805f805f6101e08688031215611475575f80fd5b853567ffffffffffffffff8082111561148c575f80fd5b61149889838a016111bd565b90975095508591506114ad8960208a016112ae565b94506101c08801359150808211156114c3575f80fd5b506114d0888289016112c5565b969995985093965092949392505050565b602080825282518282018190525f9190848201906040850190845b8181101561151a5783511515835292840192918401916001016114fc565b50909695505050505050565b80356001600160e01b031981168114611198575f80fd5b5f806040838503121561154e575f80fd5b61155783611182565b915061145760208401611526565b5f8060408385031215611576575f80fd5b61157f83611182565b915060208301356001600160c01b038116811461159a575f80fd5b809150509250929050565b5f6101a082840312156115b6575f80fd5b6111b683836112ae565b5f805f606084860312156115d2575f80fd5b6115db84611182565b92506115e960208501611526565b91506115f760408501611205565b90509250925092565b602081525f6111b66020830184611355565b634e487b7160e01b5f52604160045260245ffd5b634e487b7160e01b5f52603260045260245ffd5b5f8235605e1983360301811261164e575f80fd5b9190910192915050565b5f808335601e1984360301811261166d575f80fd5b83018035915067ffffffffffffffff821115611687575f80fd5b6020019150368190038213156111fe575f80fd5b818382375f9101908152919050565b828152604060208201525f6116c26040830184611355565b949350505050565b634e487b7160e01b5f52602160045260245ffd5b600181811c908216806116f257607f821691505b6020821081036112bf57634e487b7160e01b5f52602260045260245ffdfea2646970667358221220a3ce90e8ac3b103b690f19b7835491e8de95716cc9800cbbeb4ee5a1c4100c3364736f6c63430008180033","linkReferences":{}},"methodIdentifiers":{"DOMAIN_SEPARATOR()":"3644e515","MAX_CALLS()":"b9add4b7","MAX_DEADLINE_BUFFER()":"3a3b00b7","MAX_FEE_BPS()":"d55be8c6","MIN_DEADLINE_BUFFER()":"66557129","SINGLETON()":"5a28a1db","VERSION()":"ffa1ad74","acceptOwnership()":"79ba5097","allowedSelectors(address,bytes4)":"bba013aa","allowedTargets(address)":"b8fe8d5f","allowedTokens(address)":"e744092e","batchSetAllowedSelectors(address,bytes4[],bool)":"595e3a53","blockUser(address)":"3da01325","eip712Domain()":"84b0196e","executeBatch((address,uint256,bytes)[],(address,uint256,uint256,uint256,bytes32,(address,uint256,address),(uint256,uint256,address,address,uint256)),bytes)":"98ce7cd6","getIntentHash((address,uint256,uint256,uint256,bytes32,(address,uint256,address),(uint256,uint256,address,address,uint256)))":"e6266427","nonces(address,uint192)":"bef37613","owner()":"8da5cb5b","pause()":"8456cb59","paused()":"5c975abb","pendingOwner()":"e30c3978","recoverTokens(address,address,uint256)":"5f3e849f","renounceOwnership()":"715018a6","setAllowedSelector(address,bytes4,bool)":"f8fcf4df","setAllowedTarget(address,bool)":"ca1dd22e","setAllowedToken(address,bool)":"8aaa2284","setTreasury(address)":"f0f44260","transferOwnership(address)":"f2fde38b","treasury()":"61d027b3","unblockUser(address)":"39d319e5","unpause()":"3f4ba83a","userBlocked(address)":"6814ed05","verifySignature((address,uint256,uint256,uint256,bytes32,(address,uint256,address),(uint256,uint256,address,address,uint256)),bytes)":"73b7cb6e"},"id":39}