{"abi":[{"type":"constructor","inputs":[{"name":"_owner","type":"address","internalType":"address"},{"name":"_treasury","type":"address","internalType":"address"}],"stateMutability":"nonpayable"},{"type":"receive","stateMutability":"payable"},{"type":"function","name":"DOMAIN_SEPARATOR","inputs":[],"outputs":[{"name":"","type":"bytes32","internalType":"bytes32"}],"stateMutability":"view"},{"type":"function","name":"MAX_CALLS","inputs":[],"outputs":[{"name":"","type":"uint256","internalType":"uint256"}],"stateMutability":"view"},{"type":"function","name":"MAX_DEADLINE_BUFFER","inputs":[],"outputs":[{"name":"","type":"uint256","internalType":"uint256"}],"stateMutability":"view"},{"type":"function","name":"MAX_FEE_BPS","inputs":[],"outputs":[{"name":"","type":"uint256","internalType":"uint256"}],"stateMutability":"view"},{"type":"function","name":"MIN_DEADLINE_BUFFER","inputs":[],"outputs":[{"name":"","type":"uint256","internalType":"uint256"}],"stateMutability":"view"},{"type":"function","name":"SINGLETON","inputs":[],"outputs":[{"name":"","type":"address","internalType":"address"}],"stateMutability":"view"},{"type":"function","name":"VERSION","inputs":[],"outputs":[{"name":"","type":"string","internalType":"string"}],"stateMutability":"view"},{"type":"function","name":"acceptOwnership","inputs":[],"outputs":[],"stateMutability":"nonpayable"},{"type":"function","name":"allowedSelectors","inputs":[{"name":"","type":"address","internalType":"address"},{"name":"","type":"bytes4","internalType":"bytes4"}],"outputs":[{"name":"","type":"bool","internalType":"bool"}],"stateMutability":"view"},{"type":"function","name":"allowedTargets","inputs":[{"name":"","type":"address","internalType":"address"}],"outputs":[{"name":"","type":"bool","internalType":"bool"}],"stateMutability":"view"},{"type":"function","name":"allowedTokens","inputs":[{"name":"","type":"address","internalType":"address"}],"outputs":[{"name":"","type":"bool","internalType":"bool"}],"stateMutability":"view"},{"type":"function","name":"batchSetAllowedSelectors","inputs":[{"name":"target","type":"address","internalType":"address"},{"name":"selectors","type":"bytes4[]","internalType":"bytes4[]"},{"name":"allowed","type":"bool","internalType":"bool"}],"outputs":[],"stateMutability":"nonpayable"},{"type":"function","name":"blockUser","inputs":[{"name":"user","type":"address","internalType":"address"}],"outputs":[],"stateMutability":"nonpayable"},{"type":"function","name":"eip712Domain","inputs":[],"outputs":[{"name":"fields","type":"bytes1","internalType":"bytes1"},{"name":"name","type":"string","internalType":"string"},{"name":"version","type":"string","internalType":"string"},{"name":"chainId","type":"uint256","internalType":"uint256"},{"name":"verifyingContract","type":"address","internalType":"address"},{"name":"salt","type":"bytes32","internalType":"bytes32"},{"name":"extensions","type":"uint256[]","internalType":"uint256[]"}],"stateMutability":"view"},{"type":"function","name":"executeBatch","inputs":[{"name":"calls","type":"tuple[]","internalType":"struct ITirraDelegate.Call[]","components":[{"name":"target","type":"address","internalType":"address"},{"name":"value","type":"uint256","internalType":"uint256"},{"name":"data","type":"bytes","internalType":"bytes"}]},{"name":"intent","type":"tuple","internalType":"struct ITirraDelegate.Intent","components":[{"name":"user","type":"address","internalType":"address"},{"name":"chainId","type":"uint256","internalType":"uint256"},{"name":"nonce","type":"uint256","internalType":"uint256"},{"name":"deadline","type":"uint256","internalType":"uint256"},{"name":"callsHash","type":"bytes32","internalType":"bytes32"},{"name":"fee","type":"tuple","internalType":"struct ITirraDelegate.Fee","components":[{"name":"token","type":"address","internalType":"address"},{"name":"amount","type":"uint256","internalType":"uint256"},{"name":"recipient","type":"address","internalType":"address"}]},{"name":"constraints","type":"tuple","internalType":"struct ITirraDelegate.Constraints","components":[{"name":"maxInput","type":"uint256","internalType":"uint256"},{"name":"minOutput","type":"uint256","internalType":"uint256"},{"name":"outputToken","type":"address","internalType":"address"},{"name":"recipient","type":"address","internalType":"address"},{"name":"destChainId","type":"uint256","internalType":"uint256"}]}]},{"name":"signature","type":"bytes","internalType":"bytes"}],"outputs":[{"name":"results","type":"bool[]","internalType":"bool[]"}],"stateMutability":"nonpayable"},{"type":"function","name":"getIntentHash","inputs":[{"name":"intent","type":"tuple","internalType":"struct ITirraDelegate.Intent","components":[{"name":"user","type":"address","internalType":"address"},{"name":"chainId","type":"uint256","internalType":"uint256"},{"name":"nonce","type":"uint256","internalType":"uint256"},{"name":"deadline","type":"uint256","internalType":"uint256"},{"name":"callsHash","type":"bytes32","internalType":"bytes32"},{"name":"fee","type":"tuple","internalType":"struct ITirraDelegate.Fee","components":[{"name":"token","type":"address","internalType":"address"},{"name":"amount","type":"uint256","internalType":"uint256"},{"name":"recipient","type":"address","internalType":"address"}]},{"name":"constraints","type":"tuple","internalType":"struct ITirraDelegate.Constraints","components":[{"name":"maxInput","type":"uint256","internalType":"uint256"},{"name":"minOutput","type":"uint256","internalType":"uint256"},{"name":"outputToken","type":"address","internalType":"address"},{"name":"recipient","type":"address","internalType":"address"},{"name":"destChainId","type":"uint256","internalType":"uint256"}]}]}],"outputs":[{"name":"","type":"bytes32","internalType":"bytes32"}],"stateMutability":"view"},{"type":"function","name":"nonces","inputs":[{"name":"","type":"address","internalType":"address"},{"name":"","type":"uint192","internalType":"uint192"}],"outputs":[{"name":"","type":"uint256","internalType":"uint256"}],"stateMutability":"view"},{"type":"function","name":"owner","inputs":[],"outputs":[{"name":"","type":"address","internalType":"address"}],"stateMutability":"view"},{"type":"function","name":"pause","inputs":[],"outputs":[],"stateMutability":"nonpayable"},{"type":"function","name":"paused","inputs":[],"outputs":[{"name":"","type":"bool","internalType":"bool"}],"stateMutability":"view"},{"type":"function","name":"pendingOwner","inputs":[],"outputs":[{"name":"","type":"address","internalType":"address"}],"stateMutability":"view"},{"type":"function","name":"recoverTokens","inputs":[{"name":"token","type":"address","internalType":"address"},{"name":"recipient","type":"address","internalType":"address"},{"name":"amount","type":"uint256","internalType":"uint256"}],"outputs":[],"stateMutability":"nonpayable"},{"type":"function","name":"renounceOwnership","inputs":[],"outputs":[],"stateMutability":"nonpayable"},{"type":"function","name":"setAllowedSelector","inputs":[{"name":"target","type":"address","internalType":"address"},{"name":"selector","type":"bytes4","internalType":"bytes4"},{"name":"allowed","type":"bool","internalType":"bool"}],"outputs":[],"stateMutability":"nonpayable"},{"type":"function","name":"setAllowedTarget","inputs":[{"name":"target","type":"address","internalType":"address"},{"name":"allowed","type":"bool","internalType":"bool"}],"outputs":[],"stateMutability":"nonpayable"},{"type":"function","name":"setAllowedToken","inputs":[{"name":"token","type":"address","internalType":"address"},{"name":"allowed","type":"bool","internalType":"bool"}],"outputs":[],"stateMutability":"nonpayable"},{"type":"function","name":"setTreasury","inputs":[{"name":"_treasury","type":"address","internalType":"address"}],"outputs":[],"stateMutability":"nonpayable"},{"type":"function","name":"transferOwnership","inputs":[{"name":"newOwner","type":"address","internalType":"address"}],"outputs":[],"stateMutability":"nonpayable"},{"type":"function","name":"treasury","inputs":[],"outputs":[{"name":"","type":"address","internalType":"address"}],"stateMutability":"view"},{"type":"function","name":"unblockUser","inputs":[{"name":"user","type":"address","internalType":"address"}],"outputs":[],"stateMutability":"nonpayable"},{"type":"function","name":"unpause","inputs":[],"outputs":[],"stateMutability":"nonpayable"},{"type":"function","name":"userBlocked","inputs":[{"name":"","type":"address","internalType":"address"}],"outputs":[{"name":"","type":"bool","internalType":"bool"}],"stateMutability":"view"},{"type":"function","name":"verifySignature","inputs":[{"name":"intent","type":"tuple","internalType":"struct ITirraDelegate.Intent","components":[{"name":"user","type":"address","internalType":"address"},{"name":"chainId","type":"uint256","internalType":"uint256"},{"name":"nonce","type":"uint256","internalType":"uint256"},{"name":"deadline","type":"uint256","internalType":"uint256"},{"name":"callsHash","type":"bytes32","internalType":"bytes32"},{"name":"fee","type":"tuple","internalType":"struct ITirraDelegate.Fee","components":[{"name":"token","type":"address","internalType":"address"},{"name":"amount","type":"uint256","internalType":"uint256"},{"name":"recipient","type":"address","internalType":"address"}]},{"name":"constraints","type":"tuple","internalType":"struct ITirraDelegate.Constraints","components":[{"name":"maxInput","type":"uint256","internalType":"uint256"},{"name":"minOutput","type":"uint256","internalType":"uint256"},{"name":"outputToken","type":"address","internalType":"address"},{"name":"recipient","type":"address","internalType":"address"},{"name":"destChainId","type":"uint256","internalType":"uint256"}]}]},{"name":"signature","type":"bytes","internalType":"bytes"}],"outputs":[{"name":"","type":"bool","internalType":"bool"}],"stateMutability":"view"},{"type":"event","name":"AllowlistUpdated","inputs":[{"name":"target","type":"address","indexed":true,"internalType":"address"},{"name":"selector","type":"bytes4","indexed":false,"internalType":"bytes4"},{"name":"allowed","type":"bool","indexed":false,"internalType":"bool"}],"anonymous":false},{"type":"event","name":"EIP712DomainChanged","inputs":[],"anonymous":false},{"type":"event","name":"EmergencyPause","inputs":[{"name":"paused","type":"bool","indexed":false,"internalType":"bool"}],"anonymous":false},{"type":"event","name":"FeeCollected","inputs":[{"name":"user","type":"address","indexed":true,"internalType":"address"},{"name":"token","type":"address","indexed":true,"internalType":"address"},{"name":"amount","type":"uint256","indexed":false,"internalType":"uint256"},{"name":"recipient","type":"address","indexed":false,"internalType":"address"}],"anonymous":false},{"type":"event","name":"IntentExecuted","inputs":[{"name":"user","type":"address","indexed":true,"internalType":"address"},{"name":"nonce","type":"uint256","indexed":true,"internalType":"uint256"},{"name":"intentHash","type":"bytes32","indexed":true,"internalType":"bytes32"},{"name":"success","type":"bool","indexed":false,"internalType":"bool"}],"anonymous":false},{"type":"event","name":"OwnershipTransferStarted","inputs":[{"name":"previousOwner","type":"address","indexed":true,"internalType":"address"},{"name":"newOwner","type":"address","indexed":true,"internalType":"address"}],"anonymous":false},{"type":"event","name":"OwnershipTransferred","inputs":[{"name":"previousOwner","type":"address","indexed":true,"internalType":"address"},{"name":"newOwner","type":"address","indexed":true,"internalType":"address"}],"anonymous":false},{"type":"event","name":"TokenAllowlistUpdated","inputs":[{"name":"token","type":"address","indexed":true,"internalType":"address"},{"name":"allowed","type":"bool","indexed":false,"internalType":"bool"}],"anonymous":false},{"type":"event","name":"UserBlocked","inputs":[{"name":"user","type":"address","indexed":true,"internalType":"address"},{"name":"blocked","type":"bool","indexed":false,"internalType":"bool"}],"anonymous":false},{"type":"error","name":"CallFailed","inputs":[{"name":"index","type":"uint256","internalType":"uint256"},{"name":"reason","type":"bytes","internalType":"bytes"}]},{"type":"error","name":"CallsHashMismatch","inputs":[]},{"type":"error","name":"DeadlineTooFar","inputs":[]},{"type":"error","name":"ECDSAInvalidSignature","inputs":[]},{"type":"error","name":"ECDSAInvalidSignatureLength","inputs":[{"name":"length","type":"uint256","internalType":"uint256"}]},{"type":"error","name":"ECDSAInvalidSignatureS","inputs":[{"name":"s","type":"bytes32","internalType":"bytes32"}]},{"type":"error","name":"FeeTooHigh","inputs":[]},{"type":"error","name":"FeeTransferFailed","inputs":[]},{"type":"error","name":"InsufficientOutput","inputs":[]},{"type":"error","name":"IntentExpired","inputs":[]},{"type":"error","name":"InvalidNonce","inputs":[]},{"type":"error","name":"InvalidShortString","inputs":[]},{"type":"error","name":"InvalidSignature","inputs":[]},{"type":"error","name":"NoCalls","inputs":[]},{"type":"error","name":"NotAContract","inputs":[]},{"type":"error","name":"OwnableInvalidOwner","inputs":[{"name":"owner","type":"address","internalType":"address"}]},{"type":"error","name":"OwnableUnauthorizedAccount","inputs":[{"name":"account","type":"address","internalType":"address"}]},{"type":"error","name":"ReentrancyGuardReentrantCall","inputs":[]},{"type":"error","name":"SafeERC20FailedOperation","inputs":[{"name":"token","type":"address","internalType":"address"}]},{"type":"error","name":"SelectorNotAllowed","inputs":[]},{"type":"error","name":"StringTooLong","inputs":[{"name":"str","type":"string","internalType":"string"}]},{"type":"error","name":"SystemPaused","inputs":[]},{"type":"error","name":"TargetNotAllowed","inputs":[]},{"type":"error","name":"TokenNotAllowed","inputs":[]},{"type":"error","name":"TooManyCalls","inputs":[]},{"type":"error","name":"UnauthorizedCaller","inputs":[]},{"type":"error","name":"UserIsBlocked","inputs":[]},{"type":"error","name":"WrongChainId","inputs":[]},{"type":"error","name":"ZeroAddress","inputs":[]}],"bytecode":{"object":"0x61018060405234801562000011575f80fd5b5060405162002f0f38038062002f0f8339810160408190526200003491620002dd565b604080518082018252600d81526c546972726144656c656761746560981b602080830191909152825180840190935260018352603160f81b9083015283916200007e825f620001d8565b610120526200008f816001620001d8565b61014052815160208084019190912060e052815190820120610100524660a0526200011c60e05161010051604080517f8b73c3c69bb8fe3d512ecc4cf759cc79239f7b179b0ffacaa9a75d522b39400f60208201529081019290925260608201524660808201523060a08201525f9060c00160405160208183030381529060405280519060200120905090565b60805250503060c0526001600160a01b0381166200015457604051631e4fbdf760e01b81525f60048201526024015b60405180910390fd5b6200015f8162000210565b5060017f9b779b17422d0df92223018b32b4d1fa46e071723d6817e2486d003becc55f00556001600160a01b038116620001ac5760405163d92e233d60e01b815260040160405180910390fd5b600a80546001600160a01b0319166001600160a01b0392909216919091179055503061016052620004ef565b5f602083511015620001f757620001ef836200022e565b90506200020a565b81620002048482620003b1565b5060ff90505b92915050565b600380546001600160a01b03191690556200022b8162000270565b50565b5f80829050601f815111156200025b578260405163305a27a960e01b81526004016200014b91906200047d565b80516200026882620004cb565b179392505050565b600280546001600160a01b038381166001600160a01b0319831681179093556040519116919082907f8be0079c531659141344cd1fd0a4f28419497f9722a3daafe3b4186f6b6457e0905f90a35050565b80516001600160a01b0381168114620002d8575f80fd5b919050565b5f8060408385031215620002ef575f80fd5b620002fa83620002c1565b91506200030a60208401620002c1565b90509250929050565b634e487b7160e01b5f52604160045260245ffd5b600181811c908216806200033c57607f821691505b6020821081036200035b57634e487b7160e01b5f52602260045260245ffd5b50919050565b601f821115620003ac57805f5260205f20601f840160051c81016020851015620003885750805b601f840160051c820191505b81811015620003a9575f815560010162000394565b50505b505050565b81516001600160401b03811115620003cd57620003cd62000313565b620003e581620003de845462000327565b8462000361565b602080601f8311600181146200041b575f8415620004035750858301515b5f19600386901b1c1916600185901b17855562000475565b5f85815260208120601f198616915b828110156200044b578886015182559484019460019091019084016200042a565b50858210156200046957878501515f19600388901b60f8161c191681555b505060018460011b0185555b505050505050565b5f602080835283518060208501525f5b81811015620004ab578581018301518582016040015282016200048d565b505f604082860101526040601f19601f8301168501019250505092915050565b805160208083015191908110156200035b575f1960209190910360031b1b16919050565b60805160a05160c05160e0516101005161012051610140516101605161299a620005755f395f81816102b4015281816111c60152818161126c015281816114f90152818161168b01528181611ed30152611fe901525f61117001525f61114401525f610f5d01525f610f3501525f610e9001525f610eba01525f610ee4015261299a5ff3fe6080604052600436106101e9575f3560e01c806384b0196e11610108578063ca1dd22e1161009d578063e744092e1161006d578063e744092e146105a2578063f0f44260146105d0578063f2fde38b146105ef578063f8fcf4df1461060e578063ffa1ad741461062d575f80fd5b8063ca1dd22e14610532578063d55be8c614610551578063e30c397814610566578063e626642714610583575f80fd5b8063b8fe8d5f116100d8578063b8fe8d5f14610481578063b9add4b7146104af578063bba013aa146104c3578063bef37613146104fc575f80fd5b806384b0196e146103f25780638aaa2284146104195780638da5cb5b1461043857806398ce7cd614610455575f80fd5b80635f3e849f1161017e578063715018a61161014e578063715018a61461039757806373b7cb6e146103ab57806379ba5097146103ca5780638456cb59146103de575f80fd5b80635f3e849f1461031757806361d027b31461033657806366557129146103555780636814ed0514610369575f80fd5b80633f4ba83a116101b95780633f4ba83a14610270578063595e3a53146102845780635a28a1db146102a35780635c975abb146102ee575f80fd5b80633644e515146101f457806339d319e51461021b5780633a3b00b71461023c5780633da0132514610251575f80fd5b366101f057005b5f80fd5b3480156101ff575f80fd5b50610208610666565b6040519081526020015b60405180910390f35b348015610226575f80fd5b5061023a61023536600461226d565b610674565b005b348015610247575f80fd5b50610208610e1081565b34801561025c575f80fd5b5061023a61026b36600461226d565b6106d1565b34801561027b575f80fd5b5061023a61072f565b34801561028f575f80fd5b5061023a61029e3660046122e4565b610777565b3480156102ae575f80fd5b506102d67f000000000000000000000000000000000000000000000000000000000000000081565b6040516001600160a01b039091168152602001610212565b3480156102f9575f80fd5b506008546103079060ff1681565b6040519015158152602001610212565b348015610322575f80fd5b5061023a610331366004612348565b6108a3565b348015610341575f80fd5b50600a546102d6906001600160a01b031681565b348015610360575f80fd5b50610208603c81565b348015610374575f80fd5b5061030761038336600461226d565b60096020525f908152604090205460ff1681565b3480156103a2575f80fd5b5061023a6108eb565b3480156103b6575f80fd5b506103076103c53660046123db565b6108fe565b3480156103d5575f80fd5b5061023a61097b565b3480156103e9575f80fd5b5061023a6109c4565b3480156103fd575f80fd5b50610406610a0c565b6040516102129796959493929190612470565b348015610424575f80fd5b5061023a610433366004612507565b610a4e565b348015610443575f80fd5b506002546001600160a01b03166102d6565b348015610460575f80fd5b5061047461046f36600461253e565b610adc565b60405161021291906125bf565b34801561048c575f80fd5b5061030761049b36600461226d565b60056020525f908152604090205460ff1681565b3480156104ba575f80fd5b50610208600a81565b3480156104ce575f80fd5b506103076104dd366004612620565b600660209081525f928352604080842090915290825290205460ff1681565b348015610507575f80fd5b50610208610516366004612653565b600760209081525f928352604080842090915290825290205481565b34801561053d575f80fd5b5061023a61054c366004612507565b610c44565b34801561055c575f80fd5b506102086101f481565b348015610571575f80fd5b506003546001600160a01b03166102d6565b34801561058e575f80fd5b5061020861059d36600461268a565b610cf8565b3480156105ad575f80fd5b506103076105bc36600461226d565b60046020525f908152604090205460ff1681565b3480156105db575f80fd5b5061023a6105ea36600461226d565b610d0b565b3480156105fa575f80fd5b5061023a61060936600461226d565b610d5c565b348015610619575f80fd5b5061023a6106283660046126a5565b610dcd565b348015610638575f80fd5b50610659604051806040016040528060018152602001603160f81b81525081565b60405161021291906126eb565b5f61066f610e84565b905090565b61067c610fad565b6001600160a01b0381165f818152600960209081526040808320805460ff19169055519182527f45de6f168269375e485fd7cb18230a971915dbb24e99d3a5e33e5c0d4cba2eed91015b60405180910390a250565b6106d9610fad565b6001600160a01b0381165f81815260096020908152604091829020805460ff1916600190811790915591519182527f45de6f168269375e485fd7cb18230a971915dbb24e99d3a5e33e5c0d4cba2eed91016106c6565b610737610fad565b6008805460ff191690556040515f81527fb80d1ae5628c2af91424c54c87acfd15016be4bebeef0425b328238702f34831906020015b60405180910390a1565b61077f610fad565b6001600160a01b0384165f9081526005602052604090205460ff166107b7576040516348cbf26d60e01b815260040160405180910390fd5b815f5b8181101561089b576001600160a01b0386165f90815260066020526040812084918787858181106107ed576107ed6126fd565b90506020020160208101906108029190612711565b6001600160e01b031916815260208101919091526040015f20805460ff19169115159190911790556001600160a01b0386167ffccc17fe32ef9513be2f4c8bb1dbefb46782e549a17cdca609e86c236d4eb28f868684818110610867576108676126fd565b905060200201602081019061087c9190612711565b8560405161088b92919061272a565b60405180910390a26001016107ba565b505050505050565b6108ab610fad565b6001600160a01b0382166108d25760405163d92e233d60e01b815260040160405180910390fd5b6108e66001600160a01b0384168383610fda565b505050565b6108f3610fad565b6108fc5f61100f565b565b5f8061091161090c86611028565b6110e9565b90505f61095585858080601f0160208091040260200160405190810160405280939291908181526020018383808284375f9201919091525086939250506111159050565b9050610964602087018761226d565b6001600160a01b0391821691161495945050505050565b60035433906001600160a01b031681146109b85760405163118cdaa760e01b81526001600160a01b03821660048201526024015b60405180910390fd5b6109c18161100f565b50565b6109cc610fad565b6008805460ff191660019081179091556040519081527fb80d1ae5628c2af91424c54c87acfd15016be4bebeef0425b328238702f348319060200161076d565b5f6060805f805f6060610a1d61113d565b610a25611169565b604080515f80825260208201909252600f60f81b9b939a50919850469750309650945092509050565b610a56610fad565b6001600160a01b038216610a7d5760405163d92e233d60e01b815260040160405180910390fd5b6001600160a01b0382165f81815260046020908152604091829020805460ff191685151590811790915591519182527f1da521c13439ac6ab125c52e0da7dd7de929f09e58aa0f89ebe3dbb12e63a52b91015b60405180910390a25050565b6060610ae6611196565b610af386868686866111c4565b604084810135901c60075f610b0b602088018861226d565b6001600160a01b0316815260208082019290925260409081015f9081206001600160c01b0390941681529290915290208054600101905560c084013515801590610b6d57505f610b6160c0860160a0870161226d565b6001600160a01b031614155b15610b8b57610b8b610b82602086018661226d565b8560a0016114ef565b610b9586866117bb565b905061012084013515610baf57610baf846101000161194d565b610bbb61090c85611028565b6040850135610bcd602087018761226d565b6001600160a01b03167fecb8b0605247e2307f31a43f9e07a62d8986df3f49253f983635ea09ddd6ce336001604051610c0a911515815260200190565b60405180910390a4610c3b60017f9b779b17422d0df92223018b32b4d1fa46e071723d6817e2486d003becc55f0055565b95945050505050565b610c4c610fad565b6001600160a01b038216610c735760405163d92e233d60e01b815260040160405180910390fd5b808015610c8857506001600160a01b0382163b155b15610ca6576040516309ee12d560e01b815260040160405180910390fd5b6001600160a01b0382165f81815260056020526040808220805460ff1916851515179055517ffccc17fe32ef9513be2f4c8bb1dbefb46782e549a17cdca609e86c236d4eb28f91610ad091859061272a565b5f610d0561090c83611028565b92915050565b610d13610fad565b6001600160a01b038116610d3a5760405163d92e233d60e01b815260040160405180910390fd5b600a80546001600160a01b0319166001600160a01b0392909216919091179055565b610d64610fad565b600380546001600160a01b0383166001600160a01b03199091168117909155610d956002546001600160a01b031690565b6001600160a01b03167f38d16b8cac22d99fc7c124b9cd0de2d3fa1faef420bfe791d8c362d765e2270060405160405180910390a350565b610dd5610fad565b6001600160a01b0383165f9081526005602052604090205460ff16610e0d576040516348cbf26d60e01b815260040160405180910390fd5b6001600160a01b0383165f8181526006602090815260408083206001600160e01b03198716845290915290819020805460ff1916841515179055517ffccc17fe32ef9513be2f4c8bb1dbefb46782e549a17cdca609e86c236d4eb28f90610e77908590859061272a565b60405180910390a2505050565b5f306001600160a01b037f000000000000000000000000000000000000000000000000000000000000000016148015610edc57507f000000000000000000000000000000000000000000000000000000000000000046145b15610f0657507f000000000000000000000000000000000000000000000000000000000000000090565b61066f604080517f8b73c3c69bb8fe3d512ecc4cf759cc79239f7b179b0ffacaa9a75d522b39400f60208201527f0000000000000000000000000000000000000000000000000000000000000000918101919091527f000000000000000000000000000000000000000000000000000000000000000060608201524660808201523060a08201525f9060c00160405160208183030381529060405280519060200120905090565b6002546001600160a01b031633146108fc5760405163118cdaa760e01b81523360048201526024016109af565b610fe78383836001611a52565b6108e657604051635274afe760e01b81526001600160a01b03841660048201526024016109af565b600380546001600160a01b03191690556109c181611ab4565b5f7ff5ffa7c2d07e7a04eb7d52977c659557f07318c1c3552d9fb7b6619b754feb7f611057602084018461226d565b83602001358460400135856060013586608001356110778860a001611b05565b6110848961010001611b7a565b6040805160208101999099526001600160a01b03909716968801969096526060870194909452608086019290925260a085015260c084015260e0830152610100820152610120015b604051602081830303815290604052805190602001209050919050565b5f610d056110f5610e84565b8360405161190160f01b8152600281019290925260228201526042902090565b5f805f806111238686611c08565b9250925092506111338282611c51565b5090949350505050565b606061066f7f00000000000000000000000000000000000000000000000000000000000000005f611d09565b606061066f7f00000000000000000000000000000000000000000000000000000000000000006001611d09565b61119e611db2565b60027f9b779b17422d0df92223018b32b4d1fa46e071723d6817e2486d003becc55f0055565b7f00000000000000000000000000000000000000000000000000000000000000006001600160a01b0316635c975abb6040518163ffffffff1660e01b8152600401602060405180830381865afa158015611220573d5f803e3d5ffd5b505050506040513d601f19601f82011682018060405250810190611244919061275a565b15611262576040516301ca793160e61b815260040160405180910390fd5b6001600160a01b037f000000000000000000000000000000000000000000000000000000000000000016636814ed0561129e602086018661226d565b6040516001600160e01b031960e084901b1681526001600160a01b039091166004820152602401602060405180830381865afa1580156112e0573d5f803e3d5ffd5b505050506040513d601f19601f82011682018060405250810190611304919061275a565b156113225760405163c000e8e560e01b815260040160405180910390fd5b46836020013514611345576040516217e1ef60ea1b815260040160405180910390fd5b826060013542111561136a57604051631022c88d60e21b815260040160405180910390fd5b611376610e1042612789565b8360600135111561139a576040516324787d7360e11b815260040160405180910390fd5b6040838101359081901c9067ffffffffffffffff168060075f6113c0602089018961226d565b6001600160a01b0316815260208082019290925260409081015f9081206001600160c01b03871682529092529020541461140d57604051633ab3447f60e11b815260040160405180910390fd5b5f86900361142e5760405163c42f653160e01b815260040160405180910390fd5b600a8611156114505760405163f5dedbff60e01b815260040160405180910390fd5b846080013561145f8888611df4565b1461147d5760405163074736cd60e21b815260040160405180910390fd5b6114888585856108fe565b6114a557604051638baa579f60e01b815260040160405180910390fd5b855f5b818110156114e4576114dc8989838181106114c5576114c56126fd565b90506020028101906114d7919061279c565b611ec9565b6001016114a8565b505050505050505050565b6001600160a01b037f00000000000000000000000000000000000000000000000000000000000000001663e744092e61152b602084018461226d565b6040516001600160e01b031960e084901b1681526001600160a01b039091166004820152602401602060405180830381865afa15801561156d573d5f803e3d5ffd5b505050506040513d601f19601f82011682018060405250810190611591919061275a565b6115ae5760405163514e24c360e11b815260040160405180910390fd5b5f6115bc602083018361226d565b6040516370a0823160e01b81526001600160a01b03858116600483015291909116906370a0823190602401602060405180830381865afa158015611602573d5f803e3d5ffd5b505050506040513d601f19601f8201168201806040525081019061162691906127ba565b90505f6127106116386101f4846127d1565b61164291906127e8565b905080836020013511156116695760405163cd4e616760e01b815260040160405180910390fd5b5f8061167b606086016040870161226d565b6001600160a01b03160361170e577f00000000000000000000000000000000000000000000000000000000000000006001600160a01b03166361d027b36040518163ffffffff1660e01b8152600401602060405180830381865afa1580156116e5573d5f803e3d5ffd5b505050506040513d601f19601f820116820180604052508101906117099190612807565b61171e565b61171e606085016040860161226d565b90506117458160208601803590611735908861226d565b6001600160a01b03169190610fda565b611752602085018561226d565b6001600160a01b0316856001600160a01b03167fcd3f15f9f1cebd4f89c3e4b2b572ad91285be4d96a5ec28ba4179d852c27c2898660200135846040516117ac9291909182526001600160a01b0316602082015260400190565b60405180910390a35050505050565b6060818067ffffffffffffffff8111156117d7576117d7612746565b604051908082528060200260200182016040528015611800578160200160208202803683370190505b5091505f5b81811015611945575f80868684818110611821576118216126fd565b9050602002810190611833919061279c565b61184190602081019061226d565b6001600160a01b031687878581811061185c5761185c6126fd565b905060200281019061186e919061279c565b60200135888886818110611884576118846126fd565b9050602002810190611896919061279c565b6118a4906040810190612822565b6040516118b2929190612865565b5f6040518083038185875af1925050503d805f81146118ec576040519150601f19603f3d011682016040523d82523d5f602084013e6118f1565b606091505b509150915081858481518110611909576119096126fd565b911515602092830291909101909101528161193b578281604051635c0dee5d60e01b81526004016109af929190612874565b5050600101611805565b505092915050565b5f61195e606083016040840161226d565b6001600160a01b03161415801561198d57505f611981608083016060840161226d565b6001600160a01b031614155b156109c1575f6119a3606083016040840161226d565b6001600160a01b03166370a082316119c1608085016060860161226d565b6040516001600160e01b031960e084901b1681526001600160a01b039091166004820152602401602060405180830381865afa158015611a03573d5f803e3d5ffd5b505050506040513d601f19601f82011682018060405250810190611a2791906127ba565b90508160200135811015611a4e5760405163bb2875c360e01b815260040160405180910390fd5b5050565b60405163a9059cbb60e01b5f8181526001600160a01b038616600452602485905291602083604481808b5af1925060015f51148316611aa8578383151615611a9c573d5f823e3d81fd5b5f873b113d1516831692505b60405250949350505050565b600280546001600160a01b038381166001600160a01b0319831681179093556040519116919082907f8be0079c531659141344cd1fd0a4f28419497f9722a3daafe3b4186f6b6457e0905f90a35050565b5f7f070a02fdc5d185ef80dca640a2396aa1b71eb112723df8f635fb48aeda98dcec611b34602084018461226d565b6020840135611b49606086016040870161226d565b6040805160208101959095526001600160a01b0393841690850152606084019190915216608082015260a0016110cc565b5f7f54900b0134fc24cf4d872ec20bee9d8625311821b695490aee7d6da2acf3d94f82356020840135611bb3606086016040870161226d565b611bc3608087016060880161226d565b60408051602081019690965285019390935260608401919091526001600160a01b03908116608084810191909152911660a083015283013560c082015260e0016110cc565b5f805f8351604103611c3f576020840151604085015160608601515f1a611c31888285856120a7565b955095509550505050611c4a565b505081515f91506002905b9250925092565b5f826003811115611c6457611c64612894565b03611c6d575050565b6001826003811115611c8157611c81612894565b03611c9f5760405163f645eedf60e01b815260040160405180910390fd5b6002826003811115611cb357611cb3612894565b03611cd45760405163fce698f760e01b8152600481018290526024016109af565b6003826003811115611ce857611ce8612894565b03611a4e576040516335e2f38360e21b8152600481018290526024016109af565b606060ff8314611d2357611d1c8361216f565b9050610d05565b818054611d2f906128a8565b80601f0160208091040260200160405190810160405280929190818152602001828054611d5b906128a8565b8015611da65780601f10611d7d57610100808354040283529160200191611da6565b820191905f5260205f20905b815481529060010190602001808311611d8957829003601f168201915b50505050509050610d05565b7f9b779b17422d0df92223018b32b4d1fa46e071723d6817e2486d003becc55f00546002036108fc57604051633ee5aeb560e01b815260040160405180910390fd5b5f81818167ffffffffffffffff811115611e1057611e10612746565b604051908082528060200260200182016040528015611e39578160200160208202803683370190505b5090505f5b82811015611e9757611e72868683818110611e5b57611e5b6126fd565b9050602002810190611e6d919061279c565b6121ac565b828281518110611e8457611e846126fd565b6020908102919091010152600101611e3e565b5080604051602001611ea991906128da565b604051602081830303815290604052805190602001209250505092915050565b6001600160a01b037f00000000000000000000000000000000000000000000000000000000000000001663b8fe8d5f611f05602084018461226d565b6040516001600160e01b031960e084901b1681526001600160a01b039091166004820152602401602060405180830381865afa158015611f47573d5f803e3d5ffd5b505050506040513d601f19601f82011682018060405250810190611f6b919061275a565b611f88576040516348cbf26d60e01b815260040160405180910390fd5b6004611f976040830183612822565b90501015611fb857604051635eda8c6960e11b815260040160405180910390fd5b5f611fc66040830183612822565b611fd4916004915f9161290f565b611fdd91612936565b90506001600160a01b037f00000000000000000000000000000000000000000000000000000000000000001663bba013aa61201b602085018561226d565b6040516001600160e01b031960e084901b811682526001600160a01b0390921660048201529084166024820152604401602060405180830381865afa158015612066573d5f803e3d5ffd5b505050506040513d601f19601f8201168201806040525081019061208a919061275a565b611a4e57604051635eda8c6960e11b815260040160405180910390fd5b5f80807f7fffffffffffffffffffffffffffffff5d576e7357a4501ddfe92f46681b20a08411156120e057505f91506003905082612165565b604080515f808252602082018084528a905260ff891692820192909252606081018790526080810186905260019060a0016020604051602081039080840390855afa158015612131573d5f803e3d5ffd5b5050604051601f1901519150506001600160a01b03811661215c57505f925060019150829050612165565b92505f91508190505b9450945094915050565b60605f61217b83612232565b6040805160208082528183019092529192505f91906020820181803683375050509182525060208101929092525090565b5f7f84fa2cf05cd88e992eae77e851af68a4ee278dcff6ef504e487a55b3baadfbe56121db602084018461226d565b60208401356121ed6040860186612822565b6040516121fb929190612865565b6040519081900381206110cc949392916020019384526001600160a01b039290921660208401526040830152606082015260800190565b5f60ff8216601f811115610d0557604051632cd44ac360e21b815260040160405180910390fd5b6001600160a01b03811681146109c1575f80fd5b5f6020828403121561227d575f80fd5b813561228881612259565b9392505050565b5f8083601f84011261229f575f80fd5b50813567ffffffffffffffff8111156122b6575f80fd5b6020830191508360208260051b85010111156122d0575f80fd5b9250929050565b80151581146109c1575f80fd5b5f805f80606085870312156122f7575f80fd5b843561230281612259565b9350602085013567ffffffffffffffff81111561231d575f80fd5b6123298782880161228f565b909450925050604085013561233d816122d7565b939692955090935050565b5f805f6060848603121561235a575f80fd5b833561236581612259565b9250602084013561237581612259565b929592945050506040919091013590565b5f6101a08284031215612397575f80fd5b50919050565b5f8083601f8401126123ad575f80fd5b50813567ffffffffffffffff8111156123c4575f80fd5b6020830191508360208285010111156122d0575f80fd5b5f805f6101c084860312156123ee575f80fd5b6123f88585612386565b92506101a084013567ffffffffffffffff811115612414575f80fd5b6124208682870161239d565b9497909650939450505050565b5f81518084525f5b8181101561245157602081850181015186830182015201612435565b505f602082860101526020601f19601f83011685010191505092915050565b60ff60f81b881681525f602060e0602084015261249060e084018a61242d565b83810360408501526124a2818a61242d565b606085018990526001600160a01b038816608086015260a0850187905284810360c0860152855180825260208088019350909101905f5b818110156124f5578351835292840192918401916001016124d9565b50909c9b505050505050505050505050565b5f8060408385031215612518575f80fd5b823561252381612259565b91506020830135612533816122d7565b809150509250929050565b5f805f805f6101e08688031215612553575f80fd5b853567ffffffffffffffff8082111561256a575f80fd5b61257689838a0161228f565b909750955085915061258b8960208a01612386565b94506101c08801359150808211156125a1575f80fd5b506125ae8882890161239d565b969995985093965092949392505050565b602080825282518282018190525f9190848201906040850190845b818110156125f85783511515835292840192918401916001016125da565b50909695505050505050565b80356001600160e01b03198116811461261b575f80fd5b919050565b5f8060408385031215612631575f80fd5b823561263c81612259565b915061264a60208401612604565b90509250929050565b5f8060408385031215612664575f80fd5b823561266f81612259565b915060208301356001600160c01b0381168114612533575f80fd5b5f6101a0828403121561269b575f80fd5b6122888383612386565b5f805f606084860312156126b7575f80fd5b83356126c281612259565b92506126d060208501612604565b915060408401356126e0816122d7565b809150509250925092565b602081525f612288602083018461242d565b634e487b7160e01b5f52603260045260245ffd5b5f60208284031215612721575f80fd5b61228882612604565b6001600160e01b03199290921682521515602082015260400190565b634e487b7160e01b5f52604160045260245ffd5b5f6020828403121561276a575f80fd5b8151612288816122d7565b634e487b7160e01b5f52601160045260245ffd5b80820180821115610d0557610d05612775565b5f8235605e198336030181126127b0575f80fd5b9190910192915050565b5f602082840312156127ca575f80fd5b5051919050565b8082028115828204841417610d0557610d05612775565b5f8261280257634e487b7160e01b5f52601260045260245ffd5b500490565b5f60208284031215612817575f80fd5b815161228881612259565b5f808335601e19843603018112612837575f80fd5b83018035915067ffffffffffffffff821115612851575f80fd5b6020019150368190038213156122d0575f80fd5b818382375f9101908152919050565b828152604060208201525f61288c604083018461242d565b949350505050565b634e487b7160e01b5f52602160045260245ffd5b600181811c908216806128bc57607f821691505b60208210810361239757634e487b7160e01b5f52602260045260245ffd5b81515f9082906020808601845b83811015612903578151855293820193908201906001016128e7565b50929695505050505050565b5f808585111561291d575f80fd5b83861115612929575f80fd5b5050820193919092039150565b6001600160e01b031981358181169160048510156119455760049490940360031b84901b169092169291505056fea26469706673582212201773e391278587bcd657a1c7456e112806c24fcf8b4bb4d1739529cdbf72d4f564736f6c63430008180033","linkReferences":{}},"methodIdentifiers":{"DOMAIN_SEPARATOR()":"3644e515","MAX_CALLS()":"b9add4b7","MAX_DEADLINE_BUFFER()":"3a3b00b7","MAX_FEE_BPS()":"d55be8c6","MIN_DEADLINE_BUFFER()":"66557129","SINGLETON()":"5a28a1db","VERSION()":"ffa1ad74","acceptOwnership()":"79ba5097","allowedSelectors(address,bytes4)":"bba013aa","allowedTargets(address)":"b8fe8d5f","allowedTokens(address)":"e744092e","batchSetAllowedSelectors(address,bytes4[],bool)":"595e3a53","blockUser(address)":"3da01325","eip712Domain()":"84b0196e","executeBatch((address,uint256,bytes)[],(address,uint256,uint256,uint256,bytes32,(address,uint256,address),(uint256,uint256,address,address,uint256)),bytes)":"98ce7cd6","getIntentHash((address,uint256,uint256,uint256,bytes32,(address,uint256,address),(uint256,uint256,address,address,uint256)))":"e6266427","nonces(address,uint192)":"bef37613","owner()":"8da5cb5b","pause()":"8456cb59","paused()":"5c975abb","pendingOwner()":"e30c3978","recoverTokens(address,address,uint256)":"5f3e849f","renounceOwnership()":"715018a6","setAllowedSelector(address,bytes4,bool)":"f8fcf4df","setAllowedTarget(address,bool)":"ca1dd22e","setAllowedToken(address,bool)":"8aaa2284","setTreasury(address)":"f0f44260","transferOwnership(address)":"f2fde38b","treasury()":"61d027b3","unblockUser(address)":"39d319e5","unpause()":"3f4ba83a","userBlocked(address)":"6814ed05","verifySignature((address,uint256,uint256,uint256,bytes32,(address,uint256,address),(uint256,uint256,address,address,uint256)),bytes)":"73b7cb6e"},"id":46}